{
  "_format": "hh-sol-artifact-1",
  "contractName": "NFTMarketplace",
  "sourceName": "contracts/NFTMarketplace.sol",
  "abi": [
    {
      "inputs": [],
      "stateMutability": "nonpayable",
      "type": "constructor"
    },
    {
      "anonymous": false,
      "inputs": [
        {
          "indexed": true,
          "internalType": "address",
          "name": "owner",
          "type": "address"
        },
        {
          "indexed": true,
          "internalType": "address",
          "name": "approved",
          "type": "address"
        },
        {
          "indexed": true,
          "internalType": "uint256",
          "name": "tokenId",
          "type": "uint256"
        }
      ],
      "name": "Approval",
      "type": "event"
    },
    {
      "anonymous": false,
      "inputs": [
        {
          "indexed": true,
          "internalType": "address",
          "name": "owner",
          "type": "address"
        },
        {
          "indexed": true,
          "internalType": "address",
          "name": "operator",
          "type": "address"
        },
        {
          "indexed": false,
          "internalType": "bool",
          "name": "approved",
          "type": "bool"
        }
      ],
      "name": "ApprovalForAll",
      "type": "event"
    },
    {
      "anonymous": false,
      "inputs": [
        {
          "indexed": true,
          "internalType": "address",
          "name": "from",
          "type": "address"
        },
        {
          "indexed": true,
          "internalType": "address",
          "name": "to",
          "type": "address"
        },
        {
          "indexed": true,
          "internalType": "uint256",
          "name": "tokenId",
          "type": "uint256"
        }
      ],
      "name": "Transfer",
      "type": "event"
    },
    {
      "anonymous": false,
      "inputs": [
        {
          "indexed": true,
          "internalType": "uint256",
          "name": "tokenId",
          "type": "uint256"
        },
        {
          "indexed": false,
          "internalType": "address",
          "name": "seller",
          "type": "address"
        },
        {
          "indexed": false,
          "internalType": "address",
          "name": "owner",
          "type": "address"
        },
        {
          "indexed": false,
          "internalType": "uint256",
          "name": "price",
          "type": "uint256"
        },
        {
          "indexed": false,
          "internalType": "bool",
          "name": "sold",
          "type": "bool"
        }
      ],
      "name": "idMarketItemCreated",
      "type": "event"
    },
    {
      "inputs": [
        {
          "internalType": "address",
          "name": "to",
          "type": "address"
        },
        {
          "internalType": "uint256",
          "name": "tokenId",
          "type": "uint256"
        }
      ],
      "name": "approve",
      "outputs": [],
      "stateMutability": "nonpayable",
      "type": "function"
    },
    {
      "inputs": [
        {
          "internalType": "address",
          "name": "owner",
          "type": "address"
        }
      ],
      "name": "balanceOf",
      "outputs": [
        {
          "internalType": "uint256",
          "name": "",
          "type": "uint256"
        }
      ],
      "stateMutability": "view",
      "type": "function"
    },
    {
      "inputs": [
        {
          "internalType": "uint256",
          "name": "tokenId",
          "type": "uint256"
        }
      ],
      "name": "createMarketSale",
      "outputs": [],
      "stateMutability": "payable",
      "type": "function"
    },
    {
      "inputs": [
        {
          "internalType": "string",
          "name": "tokenURI",
          "type": "string"
        },
        {
          "internalType": "uint256",
          "name": "price",
          "type": "uint256"
        }
      ],
      "name": "createToken",
      "outputs": [
        {
          "internalType": "uint256",
          "name": "",
          "type": "uint256"
        }
      ],
      "stateMutability": "payable",
      "type": "function"
    },
    {
      "inputs": [],
      "name": "fetchItemsListed",
      "outputs": [
        {
          "components": [
            {
              "internalType": "uint256",
              "name": "tokenId",
              "type": "uint256"
            },
            {
              "internalType": "address payable",
              "name": "seller",
              "type": "address"
            },
            {
              "internalType": "address payable",
              "name": "owner",
              "type": "address"
            },
            {
              "internalType": "uint256",
              "name": "price",
              "type": "uint256"
            },
            {
              "internalType": "bool",
              "name": "sold",
              "type": "bool"
            }
          ],
          "internalType": "struct NFTMarketplace.MarketItem[]",
          "name": "",
          "type": "tuple[]"
        }
      ],
      "stateMutability": "view",
      "type": "function"
    },
    {
      "inputs": [],
      "name": "fetchMarketItem",
      "outputs": [
        {
          "components": [
            {
              "internalType": "uint256",
              "name": "tokenId",
              "type": "uint256"
            },
            {
              "internalType": "address payable",
              "name": "seller",
              "type": "address"
            },
            {
              "internalType": "address payable",
              "name": "owner",
              "type": "address"
            },
            {
              "internalType": "uint256",
              "name": "price",
              "type": "uint256"
            },
            {
              "internalType": "bool",
              "name": "sold",
              "type": "bool"
            }
          ],
          "internalType": "struct NFTMarketplace.MarketItem[]",
          "name": "",
          "type": "tuple[]"
        }
      ],
      "stateMutability": "view",
      "type": "function"
    },
    {
      "inputs": [],
      "name": "fetchMyNFT",
      "outputs": [
        {
          "components": [
            {
              "internalType": "uint256",
              "name": "tokenId",
              "type": "uint256"
            },
            {
              "internalType": "address payable",
              "name": "seller",
              "type": "address"
            },
            {
              "internalType": "address payable",
              "name": "owner",
              "type": "address"
            },
            {
              "internalType": "uint256",
              "name": "price",
              "type": "uint256"
            },
            {
              "internalType": "bool",
              "name": "sold",
              "type": "bool"
            }
          ],
          "internalType": "struct NFTMarketplace.MarketItem[]",
          "name": "",
          "type": "tuple[]"
        }
      ],
      "stateMutability": "view",
      "type": "function"
    },
    {
      "inputs": [
        {
          "internalType": "uint256",
          "name": "tokenId",
          "type": "uint256"
        }
      ],
      "name": "getApproved",
      "outputs": [
        {
          "internalType": "address",
          "name": "",
          "type": "address"
        }
      ],
      "stateMutability": "view",
      "type": "function"
    },
    {
      "inputs": [],
      "name": "getListingPrice",
      "outputs": [
        {
          "internalType": "uint256",
          "name": "",
          "type": "uint256"
        }
      ],
      "stateMutability": "view",
      "type": "function"
    },
    {
      "inputs": [
        {
          "internalType": "address",
          "name": "owner",
          "type": "address"
        },
        {
          "internalType": "address",
          "name": "operator",
          "type": "address"
        }
      ],
      "name": "isApprovedForAll",
      "outputs": [
        {
          "internalType": "bool",
          "name": "",
          "type": "bool"
        }
      ],
      "stateMutability": "view",
      "type": "function"
    },
    {
      "inputs": [],
      "name": "name",
      "outputs": [
        {
          "internalType": "string",
          "name": "",
          "type": "string"
        }
      ],
      "stateMutability": "view",
      "type": "function"
    },
    {
      "inputs": [
        {
          "internalType": "uint256",
          "name": "tokenId",
          "type": "uint256"
        }
      ],
      "name": "ownerOf",
      "outputs": [
        {
          "internalType": "address",
          "name": "",
          "type": "address"
        }
      ],
      "stateMutability": "view",
      "type": "function"
    },
    {
      "inputs": [
        {
          "internalType": "uint256",
          "name": "tokenId",
          "type": "uint256"
        },
        {
          "internalType": "uint256",
          "name": "price",
          "type": "uint256"
        }
      ],
      "name": "reSellToken",
      "outputs": [],
      "stateMutability": "payable",
      "type": "function"
    },
    {
      "inputs": [
        {
          "internalType": "address",
          "name": "from",
          "type": "address"
        },
        {
          "internalType": "address",
          "name": "to",
          "type": "address"
        },
        {
          "internalType": "uint256",
          "name": "tokenId",
          "type": "uint256"
        }
      ],
      "name": "safeTransferFrom",
      "outputs": [],
      "stateMutability": "nonpayable",
      "type": "function"
    },
    {
      "inputs": [
        {
          "internalType": "address",
          "name": "from",
          "type": "address"
        },
        {
          "internalType": "address",
          "name": "to",
          "type": "address"
        },
        {
          "internalType": "uint256",
          "name": "tokenId",
          "type": "uint256"
        },
        {
          "internalType": "bytes",
          "name": "data",
          "type": "bytes"
        }
      ],
      "name": "safeTransferFrom",
      "outputs": [],
      "stateMutability": "nonpayable",
      "type": "function"
    },
    {
      "inputs": [
        {
          "internalType": "address",
          "name": "operator",
          "type": "address"
        },
        {
          "internalType": "bool",
          "name": "approved",
          "type": "bool"
        }
      ],
      "name": "setApprovalForAll",
      "outputs": [],
      "stateMutability": "nonpayable",
      "type": "function"
    },
    {
      "inputs": [
        {
          "internalType": "bytes4",
          "name": "interfaceId",
          "type": "bytes4"
        }
      ],
      "name": "supportsInterface",
      "outputs": [
        {
          "internalType": "bool",
          "name": "",
          "type": "bool"
        }
      ],
      "stateMutability": "view",
      "type": "function"
    },
    {
      "inputs": [],
      "name": "symbol",
      "outputs": [
        {
          "internalType": "string",
          "name": "",
          "type": "string"
        }
      ],
      "stateMutability": "view",
      "type": "function"
    },
    {
      "inputs": [
        {
          "internalType": "uint256",
          "name": "tokenId",
          "type": "uint256"
        }
      ],
      "name": "tokenURI",
      "outputs": [
        {
          "internalType": "string",
          "name": "",
          "type": "string"
        }
      ],
      "stateMutability": "view",
      "type": "function"
    },
    {
      "inputs": [
        {
          "internalType": "address",
          "name": "from",
          "type": "address"
        },
        {
          "internalType": "address",
          "name": "to",
          "type": "address"
        },
        {
          "internalType": "uint256",
          "name": "tokenId",
          "type": "uint256"
        }
      ],
      "name": "transferFrom",
      "outputs": [],
      "stateMutability": "nonpayable",
      "type": "function"
    },
    {
      "inputs": [
        {
          "internalType": "uint256",
          "name": "_listingPrice",
          "type": "uint256"
        }
      ],
      "name": "updateListingPrice",
      "outputs": [],
      "stateMutability": "payable",
      "type": "function"
    }
  ],
  "bytecode": "0x60806040526608e1bc9bf040006009553480156200001c57600080fd5b506040518060400160405280601381526020017f4e4654204d657465766172736520546f6b656e000000000000000000000000008152506040518060400160405280600581526020017f4d594d465400000000000000000000000000000000000000000000000000000081525081600090816200009a919062000370565b508060019081620000ac919062000370565b50505033600a60006101000a81548173ffffffffffffffffffffffffffffffffffffffff021916908373ffffffffffffffffffffffffffffffffffffffff16021790555062000457565b600081519050919050565b7f4e487b7100000000000000000000000000000000000000000000000000000000600052604160045260246000fd5b7f4e487b7100000000000000000000000000000000000000000000000000000000600052602260045260246000fd5b600060028204905060018216806200017857607f821691505b6020821081036200018e576200018d62000130565b5b50919050565b60008190508160005260206000209050919050565b60006020601f8301049050919050565b600082821b905092915050565b600060088302620001f87fffffffffffffffffffffffffffffffffffffffffffffffffffffffffffffffff82620001b9565b620002048683620001b9565b95508019841693508086168417925050509392505050565b6000819050919050565b6000819050919050565b6000620002516200024b62000245846200021c565b62000226565b6200021c565b9050919050565b6000819050919050565b6200026d8362000230565b620002856200027c8262000258565b848454620001c6565b825550505050565b600090565b6200029c6200028d565b620002a981848462000262565b505050565b5b81811015620002d157620002c560008262000292565b600181019050620002af565b5050565b601f8211156200032057620002ea8162000194565b620002f584620001a9565b8101602085101562000305578190505b6200031d6200031485620001a9565b830182620002ae565b50505b505050565b600082821c905092915050565b6000620003456000198460080262000325565b1980831691505092915050565b600062000360838362000332565b9150826002028217905092915050565b6200037b82620000f6565b67ffffffffffffffff81111562000397576200039662000101565b5b620003a382546200015f565b620003b0828285620002d5565b600060209050601f831160018114620003e85760008415620003d3578287015190505b620003df858262000352565b8655506200044f565b601f198416620003f88662000194565b60005b828110156200042257848901518255600182019150602085019450602081019050620003fb565b868310156200044257848901516200043e601f89168262000332565b8355505b6001600288020188555050505b505050505050565b6142d680620004676000396000f3fe60806040526004361061012a5760003560e01c806372b3b620116100ab578063ae677aa31161006f578063ae677aa3146103ea578063b88d4fde14610406578063be9af5361461042f578063c18763f71461044b578063c87b56dd14610476578063e985e9c5146104b35761012a565b806372b3b6201461031f57806385535b251461034f5780638fafd0211461036b57806395d89b4114610396578063a22cb465146103c15761012a565b806323b872dd116100f257806323b872dd1461022857806342842e0e1461025157806345f8fa801461027a5780636352211e146102a557806370a08231146102e25761012a565b806301ffc9a71461012f57806306fdde031461016c578063081812fc14610197578063095ea7b3146101d457806312e85585146101fd575b600080fd5b34801561013b57600080fd5b5061015660048036038101906101519190612a9d565b6104f0565b6040516101639190612ae5565b60405180910390f35b34801561017857600080fd5b506101816105d2565b60405161018e9190612b90565b60405180910390f35b3480156101a357600080fd5b506101be60048036038101906101b99190612be8565b610664565b6040516101cb9190612c56565b60405180910390f35b3480156101e057600080fd5b506101fb60048036038101906101f69190612c9d565b6106aa565b005b34801561020957600080fd5b506102126107c1565b60405161021f9190612cec565b60405180910390f35b34801561023457600080fd5b5061024f600480360381019061024a9190612d07565b610809565b005b34801561025d57600080fd5b5061027860048036038101906102739190612d07565b610869565b005b34801561028657600080fd5b5061028f610889565b60405161029c9190612eb0565b60405180910390f35b3480156102b157600080fd5b506102cc60048036038101906102c79190612be8565b610b75565b6040516102d99190612c56565b60405180910390f35b3480156102ee57600080fd5b5061030960048036038101906103049190612ed2565b610c26565b6040516103169190612cec565b60405180910390f35b61033960048036038101906103349190613034565b610cdd565b6040516103469190612cec565b60405180910390f35b61036960048036038101906103649190613090565b610d1f565b005b34801561037757600080fd5b50610380610f14565b60405161038d9190612eb0565b60405180910390f35b3480156103a257600080fd5b506103ab61117c565b6040516103b89190612b90565b60405180910390f35b3480156103cd57600080fd5b506103e860048036038101906103e391906130fc565b61120e565b005b61040460048036038101906103ff9190612be8565b611224565b005b34801561041257600080fd5b5061042d600480360381019061042891906131dd565b6112be565b005b61044960048036038101906104449190612be8565b611320565b005b34801561045757600080fd5b50610460611558565b60405161046d9190612eb0565b60405180910390f35b34801561048257600080fd5b5061049d60048036038101906104989190612be8565b611844565b6040516104aa9190612b90565b60405180910390f35b3480156104bf57600080fd5b506104da60048036038101906104d59190613260565b611956565b6040516104e79190612ae5565b60405180910390f35b60007f80ac58cd000000000000000000000000000000000000000000000000000000007bffffffffffffffffffffffffffffffffffffffffffffffffffffffff1916827bffffffffffffffffffffffffffffffffffffffffffffffffffffffff191614806105bb57507f5b5e139f000000000000000000000000000000000000000000000000000000007bffffffffffffffffffffffffffffffffffffffffffffffffffffffff1916827bffffffffffffffffffffffffffffffffffffffffffffffffffffffff1916145b806105cb57506105ca826119ea565b5b9050919050565b6060600080546105e1906132cf565b80601f016020809104026020016040519081016040528092919081815260200182805461060d906132cf565b801561065a5780601f1061062f5761010080835404028352916020019161065a565b820191906000526020600020905b81548152906001019060200180831161063d57829003601f168201915b5050505050905090565b600061066f82611a54565b6004600083815260200190815260200160002060009054906101000a900473ffffffffffffffffffffffffffffffffffffffff169050919050565b60006106b582610b75565b90508073ffffffffffffffffffffffffffffffffffffffff168373ffffffffffffffffffffffffffffffffffffffff1603610725576040517f08c379a000000000000000000000000000000000000000000000000000000000815260040161071c90613372565b60405180910390fd5b8073ffffffffffffffffffffffffffffffffffffffff16610744611a9f565b73ffffffffffffffffffffffffffffffffffffffff16148061077357506107728161076d611a9f565b611956565b5b6107b2576040517f08c379a00000000000000000000000000000000000000000000000000000000081526004016107a990613404565b60405180910390fd5b6107bc8383611aa7565b505050565b60006108016040518060400160405280601581526020017f47657474696e67206c697374696e672070726963650000000000000000000000815250611b60565b600954905090565b61081a610814611a9f565b82611bf9565b610859576040517f08c379a000000000000000000000000000000000000000000000000000000000815260040161085090613496565b60405180910390fd5b610864838383611c8e565b505050565b610884838383604051806020016040528060008152506112be565b505050565b606060006108976007611ef4565b905060008060005b8381101561093f573373ffffffffffffffffffffffffffffffffffffffff16600b60006001846108cf91906134e5565b815260200190815260200160002060010160009054906101000a900473ffffffffffffffffffffffffffffffffffffffff1673ffffffffffffffffffffffffffffffffffffffff160361092c5760018361092991906134e5565b92505b808061093790613519565b91505061089f565b5060008267ffffffffffffffff81111561095c5761095b612f09565b5b60405190808252806020026020018201604052801561099557816020015b6109826129ca565b81526020019060019003908161097a5790505b50905060005b84811015610b6a573373ffffffffffffffffffffffffffffffffffffffff16600b60006001846109cb91906134e5565b815260200190815260200160002060010160009054906101000a900473ffffffffffffffffffffffffffffffffffffffff1673ffffffffffffffffffffffffffffffffffffffff1603610b57576000600182610a2791906134e5565b90506000600b60008381526020019081526020016000209050806040518060a0016040529081600082015481526020016001820160009054906101000a900473ffffffffffffffffffffffffffffffffffffffff1673ffffffffffffffffffffffffffffffffffffffff1673ffffffffffffffffffffffffffffffffffffffff1681526020016002820160009054906101000a900473ffffffffffffffffffffffffffffffffffffffff1673ffffffffffffffffffffffffffffffffffffffff1673ffffffffffffffffffffffffffffffffffffffff168152602001600382015481526020016004820160009054906101000a900460ff161515151581525050848681518110610b3a57610b39613561565b5b6020026020010181905250600185610b5291906134e5565b945050505b8080610b6290613519565b91505061099b565b508094505050505090565b6000806002600084815260200190815260200160002060009054906101000a900473ffffffffffffffffffffffffffffffffffffffff169050600073ffffffffffffffffffffffffffffffffffffffff168173ffffffffffffffffffffffffffffffffffffffff1603610c1d576040517f08c379a0000000000000000000000000000000000000000000000000000000008152600401610c14906135dc565b60405180910390fd5b80915050919050565b60008073ffffffffffffffffffffffffffffffffffffffff168273ffffffffffffffffffffffffffffffffffffffff1603610c96576040517f08c379a0000000000000000000000000000000000000000000000000000000008152600401610c8d9061366e565b60405180910390fd5b600360008373ffffffffffffffffffffffffffffffffffffffff1673ffffffffffffffffffffffffffffffffffffffff168152602001908152602001600020549050919050565b6000610ce96007611f02565b6000610cf56007611ef4565b9050610d013382611f18565b610d0b81856120f1565b610d15818461215e565b8091505092915050565b3373ffffffffffffffffffffffffffffffffffffffff16600b600084815260200190815260200160002060020160009054906101000a900473ffffffffffffffffffffffffffffffffffffffff1673ffffffffffffffffffffffffffffffffffffffff1614610dc3576040517f08c379a0000000000000000000000000000000000000000000000000000000008152600401610dba90613700565b60405180910390fd5b6009543414610e07576040517f08c379a0000000000000000000000000000000000000000000000000000000008152600401610dfe90613792565b60405180910390fd5b6000600b600084815260200190815260200160002060040160006101000a81548160ff02191690831515021790555080600b60008481526020019081526020016000206003018190555033600b600084815260200190815260200160002060010160006101000a81548173ffffffffffffffffffffffffffffffffffffffff021916908373ffffffffffffffffffffffffffffffffffffffff16021790555030600b600084815260200190815260200160002060020160006101000a81548173ffffffffffffffffffffffffffffffffffffffff021916908373ffffffffffffffffffffffffffffffffffffffff160217905550610f056008612361565b610f10333084611c8e565b5050565b60606000610f226007611ef4565b90506000610f306008611ef4565b610f3a6007611ef4565b610f4491906137b2565b90506000808267ffffffffffffffff811115610f6357610f62612f09565b5b604051908082528060200260200182016040528015610f9c57816020015b610f896129ca565b815260200190600190039081610f815790505b50905060005b84811015611171573073ffffffffffffffffffffffffffffffffffffffff16600b6000600184610fd291906134e5565b815260200190815260200160002060020160009054906101000a900473ffffffffffffffffffffffffffffffffffffffff1673ffffffffffffffffffffffffffffffffffffffff160361115e57600060018261102e91906134e5565b90506000600b60008381526020019081526020016000209050806040518060a0016040529081600082015481526020016001820160009054906101000a900473ffffffffffffffffffffffffffffffffffffffff1673ffffffffffffffffffffffffffffffffffffffff1673ffffffffffffffffffffffffffffffffffffffff1681526020016002820160009054906101000a900473ffffffffffffffffffffffffffffffffffffffff1673ffffffffffffffffffffffffffffffffffffffff1673ffffffffffffffffffffffffffffffffffffffff168152602001600382015481526020016004820160009054906101000a900460ff16151515158152505084868151811061114157611140613561565b5b602002602001018190525060018561115991906134e5565b945050505b808061116990613519565b915050610fa2565b508094505050505090565b60606001805461118b906132cf565b80601f01602080910402602001604051908101604052809291908181526020018280546111b7906132cf565b80156112045780601f106111d957610100808354040283529160200191611204565b820191906000526020600020905b8154815290600101906020018083116111e757829003601f168201915b5050505050905090565b611220611219611a9f565b83836123bd565b5050565b600a60009054906101000a900473ffffffffffffffffffffffffffffffffffffffff1673ffffffffffffffffffffffffffffffffffffffff163373ffffffffffffffffffffffffffffffffffffffff16146112b4576040517f08c379a00000000000000000000000000000000000000000000000000000000081526004016112ab90613858565b60405180910390fd5b8060098190555050565b6112cf6112c9611a9f565b83611bf9565b61130e576040517f08c379a000000000000000000000000000000000000000000000000000000000815260040161130590613496565b60405180910390fd5b61131a84848484612529565b50505050565b6000600b600083815260200190815260200160002060030154905080341461137d576040517f08c379a0000000000000000000000000000000000000000000000000000000008152600401611374906138ea565b60405180910390fd5b33600b600084815260200190815260200160002060020160006101000a81548173ffffffffffffffffffffffffffffffffffffffff021916908373ffffffffffffffffffffffffffffffffffffffff1602179055506001600b600084815260200190815260200160002060040160006101000a81548160ff0219169083151502179055506000600b600084815260200190815260200160002060020160006101000a81548173ffffffffffffffffffffffffffffffffffffffff021916908373ffffffffffffffffffffffffffffffffffffffff1602179055506114616008611f02565b61146c303384611c8e565b600a60009054906101000a900473ffffffffffffffffffffffffffffffffffffffff1673ffffffffffffffffffffffffffffffffffffffff166108fc6009549081150290604051600060405180830381858888f193505050501580156114d6573d6000803e3d6000fd5b50600b600083815260200190815260200160002060010160009054906101000a900473ffffffffffffffffffffffffffffffffffffffff1673ffffffffffffffffffffffffffffffffffffffff166108fc349081150290604051600060405180830381858888f19350505050158015611553573d6000803e3d6000fd5b505050565b606060006115666007611ef4565b905060008060005b8381101561160e573373ffffffffffffffffffffffffffffffffffffffff16600b600060018461159e91906134e5565b815260200190815260200160002060020160009054906101000a900473ffffffffffffffffffffffffffffffffffffffff1673ffffffffffffffffffffffffffffffffffffffff16036115fb576001836115f891906134e5565b92505b808061160690613519565b91505061156e565b5060008267ffffffffffffffff81111561162b5761162a612f09565b5b60405190808252806020026020018201604052801561166457816020015b6116516129ca565b8152602001906001900390816116495790505b50905060005b84811015611839573373ffffffffffffffffffffffffffffffffffffffff16600b600060018461169a91906134e5565b815260200190815260200160002060020160009054906101000a900473ffffffffffffffffffffffffffffffffffffffff1673ffffffffffffffffffffffffffffffffffffffff16036118265760006001826116f691906134e5565b90506000600b60008381526020019081526020016000209050806040518060a0016040529081600082015481526020016001820160009054906101000a900473ffffffffffffffffffffffffffffffffffffffff1673ffffffffffffffffffffffffffffffffffffffff1673ffffffffffffffffffffffffffffffffffffffff1681526020016002820160009054906101000a900473ffffffffffffffffffffffffffffffffffffffff1673ffffffffffffffffffffffffffffffffffffffff1673ffffffffffffffffffffffffffffffffffffffff168152602001600382015481526020016004820160009054906101000a900460ff16151515158152505084868151811061180957611808613561565b5b602002602001018190525060018561182191906134e5565b945050505b808061183190613519565b91505061166a565b508094505050505090565b606061184f82611a54565b600060066000848152602001908152602001600020805461186f906132cf565b80601f016020809104026020016040519081016040528092919081815260200182805461189b906132cf565b80156118e85780601f106118bd576101008083540402835291602001916118e8565b820191906000526020600020905b8154815290600101906020018083116118cb57829003601f168201915b5050505050905060006118f9612585565b9050600081510361190e578192505050611951565b60008251111561194357808260405160200161192b929190613946565b60405160208183030381529060405292505050611951565b61194c8461259c565b925050505b919050565b6000600560008473ffffffffffffffffffffffffffffffffffffffff1673ffffffffffffffffffffffffffffffffffffffff16815260200190815260200160002060008373ffffffffffffffffffffffffffffffffffffffff1673ffffffffffffffffffffffffffffffffffffffff16815260200190815260200160002060009054906101000a900460ff16905092915050565b60007f01ffc9a7000000000000000000000000000000000000000000000000000000007bffffffffffffffffffffffffffffffffffffffffffffffffffffffff1916827bffffffffffffffffffffffffffffffffffffffffffffffffffffffff1916149050919050565b611a5d81612604565b611a9c576040517f08c379a0000000000000000000000000000000000000000000000000000000008152600401611a93906135dc565b60405180910390fd5b50565b600033905090565b816004600083815260200190815260200160002060006101000a81548173ffffffffffffffffffffffffffffffffffffffff021916908373ffffffffffffffffffffffffffffffffffffffff160217905550808273ffffffffffffffffffffffffffffffffffffffff16611b1a83610b75565b73ffffffffffffffffffffffffffffffffffffffff167f8c5be1e5ebec7d5bd14f71427d1e84f3dd0314c0f7b2291e5b200ac8c7c3b92560405160405180910390a45050565b611bf681604051602401611b749190612b90565b6040516020818303038152906040527f41304fac000000000000000000000000000000000000000000000000000000007bffffffffffffffffffffffffffffffffffffffffffffffffffffffff19166020820180517bffffffffffffffffffffffffffffffffffffffffffffffffffffffff8381831617835250505050612670565b50565b600080611c0583610b75565b90508073ffffffffffffffffffffffffffffffffffffffff168473ffffffffffffffffffffffffffffffffffffffff161480611c475750611c468185611956565b5b80611c8557508373ffffffffffffffffffffffffffffffffffffffff16611c6d84610664565b73ffffffffffffffffffffffffffffffffffffffff16145b91505092915050565b8273ffffffffffffffffffffffffffffffffffffffff16611cae82610b75565b73ffffffffffffffffffffffffffffffffffffffff1614611d04576040517f08c379a0000000000000000000000000000000000000000000000000000000008152600401611cfb906139dc565b60405180910390fd5b600073ffffffffffffffffffffffffffffffffffffffff168273ffffffffffffffffffffffffffffffffffffffff1603611d73576040517f08c379a0000000000000000000000000000000000000000000000000000000008152600401611d6a90613a6e565b60405180910390fd5b611d7e83838361268a565b611d89600082611aa7565b6001600360008573ffffffffffffffffffffffffffffffffffffffff1673ffffffffffffffffffffffffffffffffffffffff1681526020019081526020016000206000828254611dd991906137b2565b925050819055506001600360008473ffffffffffffffffffffffffffffffffffffffff1673ffffffffffffffffffffffffffffffffffffffff1681526020019081526020016000206000828254611e3091906134e5565b92505081905550816002600083815260200190815260200160002060006101000a81548173ffffffffffffffffffffffffffffffffffffffff021916908373ffffffffffffffffffffffffffffffffffffffff160217905550808273ffffffffffffffffffffffffffffffffffffffff168473ffffffffffffffffffffffffffffffffffffffff167fddf252ad1be2c89b69c2b068fc378daa952ba7f163c4a11628f55a4df523b3ef60405160405180910390a4611eef83838361268f565b505050565b600081600001549050919050565b6001816000016000828254019250508190555050565b600073ffffffffffffffffffffffffffffffffffffffff168273ffffffffffffffffffffffffffffffffffffffff1603611f87576040517f08c379a0000000000000000000000000000000000000000000000000000000008152600401611f7e90613ada565b60405180910390fd5b611f9081612604565b15611fd0576040517f08c379a0000000000000000000000000000000000000000000000000000000008152600401611fc790613b46565b60405180910390fd5b611fdc6000838361268a565b6001600360008473ffffffffffffffffffffffffffffffffffffffff1673ffffffffffffffffffffffffffffffffffffffff168152602001908152602001600020600082825461202c91906134e5565b92505081905550816002600083815260200190815260200160002060006101000a81548173ffffffffffffffffffffffffffffffffffffffff021916908373ffffffffffffffffffffffffffffffffffffffff160217905550808273ffffffffffffffffffffffffffffffffffffffff16600073ffffffffffffffffffffffffffffffffffffffff167fddf252ad1be2c89b69c2b068fc378daa952ba7f163c4a11628f55a4df523b3ef60405160405180910390a46120ed6000838361268f565b5050565b6120fa82612604565b612139576040517f08c379a000000000000000000000000000000000000000000000000000000000815260040161213090613bd8565b60405180910390fd5b806006600084815260200190815260200160002090816121599190613da4565b505050565b600081116121a1576040517f08c379a000000000000000000000000000000000000000000000000000000000815260040161219890613ec2565b60405180910390fd5b60095434146121e5576040517f08c379a00000000000000000000000000000000000000000000000000000000081526004016121dc90613f2e565b60405180910390fd5b6040518060a001604052808381526020013373ffffffffffffffffffffffffffffffffffffffff1681526020013073ffffffffffffffffffffffffffffffffffffffff16815260200182815260200160001515815250600b60008481526020019081526020016000206000820151816000015560208201518160010160006101000a81548173ffffffffffffffffffffffffffffffffffffffff021916908373ffffffffffffffffffffffffffffffffffffffff16021790555060408201518160020160006101000a81548173ffffffffffffffffffffffffffffffffffffffff021916908373ffffffffffffffffffffffffffffffffffffffff1602179055506060820151816003015560808201518160040160006101000a81548160ff02191690831515021790555090505061231e333084611c8e565b817fdebdb32cb5230ab727c9c361b16fdb2015df225c10e6a3e7f60ecd5dc5be451633308460006040516123559493929190613f4e565b60405180910390a25050565b600081600001549050600081116123ad576040517f08c379a00000000000000000000000000000000000000000000000000000000081526004016123a490613fdf565b60405180910390fd5b6001810382600001819055505050565b8173ffffffffffffffffffffffffffffffffffffffff168373ffffffffffffffffffffffffffffffffffffffff160361242b576040517f08c379a00000000000000000000000000000000000000000000000000000000081526004016124229061404b565b60405180910390fd5b80600560008573ffffffffffffffffffffffffffffffffffffffff1673ffffffffffffffffffffffffffffffffffffffff16815260200190815260200160002060008473ffffffffffffffffffffffffffffffffffffffff1673ffffffffffffffffffffffffffffffffffffffff16815260200190815260200160002060006101000a81548160ff0219169083151502179055508173ffffffffffffffffffffffffffffffffffffffff168373ffffffffffffffffffffffffffffffffffffffff167f17307eab39ab6107e8899845ad3d59bd9653f200f220920489ca2b5937696c318360405161251c9190612ae5565b60405180910390a3505050565b612534848484611c8e565b61254084848484612694565b61257f576040517f08c379a0000000000000000000000000000000000000000000000000000000008152600401612576906140dd565b60405180910390fd5b50505050565b606060405180602001604052806000815250905090565b60606125a782611a54565b60006125b1612585565b905060008151116125d157604051806020016040528060008152506125fc565b806125db8461281b565b6040516020016125ec929190613946565b6040516020818303038152906040525b915050919050565b60008073ffffffffffffffffffffffffffffffffffffffff166002600084815260200190815260200160002060009054906101000a900473ffffffffffffffffffffffffffffffffffffffff1673ffffffffffffffffffffffffffffffffffffffff1614159050919050565b6126878161267f61297b61299c565b63ffffffff16565b50565b505050565b505050565b60006126b58473ffffffffffffffffffffffffffffffffffffffff166129a7565b1561280e578373ffffffffffffffffffffffffffffffffffffffff1663150b7a026126de611a9f565b8786866040518563ffffffff1660e01b81526004016127009493929190614152565b6020604051808303816000875af192505050801561273c57506040513d601f19601f8201168201806040525081019061273991906141b3565b60015b6127be573d806000811461276c576040519150601f19603f3d011682016040523d82523d6000602084013e612771565b606091505b5060008151036127b6576040517f08c379a00000000000000000000000000000000000000000000000000000000081526004016127ad906140dd565b60405180910390fd5b805181602001fd5b63150b7a0260e01b7bffffffffffffffffffffffffffffffffffffffffffffffffffffffff1916817bffffffffffffffffffffffffffffffffffffffffffffffffffffffff191614915050612813565b600190505b949350505050565b606060008203612862576040518060400160405280600181526020017f30000000000000000000000000000000000000000000000000000000000000008152509050612976565b600082905060005b6000821461289457808061287d90613519565b915050600a8261288d919061420f565b915061286a565b60008167ffffffffffffffff8111156128b0576128af612f09565b5b6040519080825280601f01601f1916602001820160405280156128e25781602001600182028036833780820191505090505b5090505b6000851461296f576001826128fb91906137b2565b9150600a8561290a9190614240565b603061291691906134e5565b60f81b81838151811061292c5761292b613561565b5b60200101907effffffffffffffffffffffffffffffffffffffffffffffffffffffffffffff1916908160001a905350600a85612968919061420f565b94506128e6565b8093505050505b919050565b60006a636f6e736f6c652e6c6f679050600080835160208501845afa505050565b612a27819050919050565b6000808273ffffffffffffffffffffffffffffffffffffffff163b119050919050565b6040518060a0016040528060008152602001600073ffffffffffffffffffffffffffffffffffffffff168152602001600073ffffffffffffffffffffffffffffffffffffffff168152602001600081526020016000151581525090565b612a2f614271565b565b6000604051905090565b600080fd5b600080fd5b60007fffffffff0000000000000000000000000000000000000000000000000000000082169050919050565b612a7a81612a45565b8114612a8557600080fd5b50565b600081359050612a9781612a71565b92915050565b600060208284031215612ab357612ab2612a3b565b5b6000612ac184828501612a88565b91505092915050565b60008115159050919050565b612adf81612aca565b82525050565b6000602082019050612afa6000830184612ad6565b92915050565b600081519050919050565b600082825260208201905092915050565b60005b83811015612b3a578082015181840152602081019050612b1f565b60008484015250505050565b6000601f19601f8301169050919050565b6000612b6282612b00565b612b6c8185612b0b565b9350612b7c818560208601612b1c565b612b8581612b46565b840191505092915050565b60006020820190508181036000830152612baa8184612b57565b905092915050565b6000819050919050565b612bc581612bb2565b8114612bd057600080fd5b50565b600081359050612be281612bbc565b92915050565b600060208284031215612bfe57612bfd612a3b565b5b6000612c0c84828501612bd3565b91505092915050565b600073ffffffffffffffffffffffffffffffffffffffff82169050919050565b6000612c4082612c15565b9050919050565b612c5081612c35565b82525050565b6000602082019050612c6b6000830184612c47565b92915050565b612c7a81612c35565b8114612c8557600080fd5b50565b600081359050612c9781612c71565b92915050565b60008060408385031215612cb457612cb3612a3b565b5b6000612cc285828601612c88565b9250506020612cd385828601612bd3565b9150509250929050565b612ce681612bb2565b82525050565b6000602082019050612d016000830184612cdd565b92915050565b600080600060608486031215612d2057612d1f612a3b565b5b6000612d2e86828701612c88565b9350506020612d3f86828701612c88565b9250506040612d5086828701612bd3565b9150509250925092565b600081519050919050565b600082825260208201905092915050565b6000819050602082019050919050565b612d8f81612bb2565b82525050565b6000612da082612c15565b9050919050565b612db081612d95565b82525050565b612dbf81612aca565b82525050565b60a082016000820151612ddb6000850182612d86565b506020820151612dee6020850182612da7565b506040820151612e016040850182612da7565b506060820151612e146060850182612d86565b506080820151612e276080850182612db6565b50505050565b6000612e398383612dc5565b60a08301905092915050565b6000602082019050919050565b6000612e5d82612d5a565b612e678185612d65565b9350612e7283612d76565b8060005b83811015612ea3578151612e8a8882612e2d565b9750612e9583612e45565b925050600181019050612e76565b5085935050505092915050565b60006020820190508181036000830152612eca8184612e52565b905092915050565b600060208284031215612ee857612ee7612a3b565b5b6000612ef684828501612c88565b91505092915050565b600080fd5b600080fd5b7f4e487b7100000000000000000000000000000000000000000000000000000000600052604160045260246000fd5b612f4182612b46565b810181811067ffffffffffffffff82111715612f6057612f5f612f09565b5b80604052505050565b6000612f73612a31565b9050612f7f8282612f38565b919050565b600067ffffffffffffffff821115612f9f57612f9e612f09565b5b612fa882612b46565b9050602081019050919050565b82818337600083830152505050565b6000612fd7612fd284612f84565b612f69565b905082815260208101848484011115612ff357612ff2612f04565b5b612ffe848285612fb5565b509392505050565b600082601f83011261301b5761301a612eff565b5b813561302b848260208601612fc4565b91505092915050565b6000806040838503121561304b5761304a612a3b565b5b600083013567ffffffffffffffff81111561306957613068612a40565b5b61307585828601613006565b925050602061308685828601612bd3565b9150509250929050565b600080604083850312156130a7576130a6612a3b565b5b60006130b585828601612bd3565b92505060206130c685828601612bd3565b9150509250929050565b6130d981612aca565b81146130e457600080fd5b50565b6000813590506130f6816130d0565b92915050565b6000806040838503121561311357613112612a3b565b5b600061312185828601612c88565b9250506020613132858286016130e7565b9150509250929050565b600067ffffffffffffffff82111561315757613156612f09565b5b61316082612b46565b9050602081019050919050565b600061318061317b8461313c565b612f69565b90508281526020810184848401111561319c5761319b612f04565b5b6131a7848285612fb5565b509392505050565b600082601f8301126131c4576131c3612eff565b5b81356131d484826020860161316d565b91505092915050565b600080600080608085870312156131f7576131f6612a3b565b5b600061320587828801612c88565b945050602061321687828801612c88565b935050604061322787828801612bd3565b925050606085013567ffffffffffffffff81111561324857613247612a40565b5b613254878288016131af565b91505092959194509250565b6000806040838503121561327757613276612a3b565b5b600061328585828601612c88565b925050602061329685828601612c88565b9150509250929050565b7f4e487b7100000000000000000000000000000000000000000000000000000000600052602260045260246000fd5b600060028204905060018216806132e757607f821691505b6020821081036132fa576132f96132a0565b5b50919050565b7f4552433732313a20617070726f76616c20746f2063757272656e74206f776e6560008201527f7200000000000000000000000000000000000000000000000000000000000000602082015250565b600061335c602183612b0b565b915061336782613300565b604082019050919050565b6000602082019050818103600083015261338b8161334f565b9050919050565b7f4552433732313a20617070726f76652063616c6c6572206973206e6f7420746f60008201527f6b656e206f776e6572206e6f7220617070726f76656420666f7220616c6c0000602082015250565b60006133ee603e83612b0b565b91506133f982613392565b604082019050919050565b6000602082019050818103600083015261341d816133e1565b9050919050565b7f4552433732313a2063616c6c6572206973206e6f7420746f6b656e206f776e6560008201527f72206e6f7220617070726f766564000000000000000000000000000000000000602082015250565b6000613480602e83612b0b565b915061348b82613424565b604082019050919050565b600060208201905081810360008301526134af81613473565b9050919050565b7f4e487b7100000000000000000000000000000000000000000000000000000000600052601160045260246000fd5b60006134f082612bb2565b91506134fb83612bb2565b9250828201905080821115613513576135126134b6565b5b92915050565b600061352482612bb2565b91507fffffffffffffffffffffffffffffffffffffffffffffffffffffffffffffffff8203613556576135556134b6565b5b600182019050919050565b7f4e487b7100000000000000000000000000000000000000000000000000000000600052603260045260246000fd5b7f4552433732313a20696e76616c696420746f6b656e2049440000000000000000600082015250565b60006135c6601883612b0b565b91506135d182613590565b602082019050919050565b600060208201905081810360008301526135f5816135b9565b9050919050565b7f4552433732313a2061646472657373207a65726f206973206e6f74206120766160008201527f6c6964206f776e65720000000000000000000000000000000000000000000000602082015250565b6000613658602983612b0b565b9150613663826135fc565b604082019050919050565b600060208201905081810360008301526136878161364b565b9050919050565b7f4f6e6c79206974656d206f776e65722063616e20706572666f726d206f70657260008201527f6174696f6e000000000000000000000000000000000000000000000000000000602082015250565b60006136ea602583612b0b565b91506136f58261368e565b604082019050919050565b60006020820190508181036000830152613719816136dd565b9050919050565b7f5072696365206d75737420626520657175616c20746f206c697374696e67207060008201527f7269636500000000000000000000000000000000000000000000000000000000602082015250565b600061377c602483612b0b565b915061378782613720565b604082019050919050565b600060208201905081810360008301526137ab8161376f565b9050919050565b60006137bd82612bb2565b91506137c883612bb2565b92508282039050818111156137e0576137df6134b6565b5b92915050565b7f4f6e6c79206f776e6572206f6620746865206d61726b6574706c61636520636160008201527f6e206368616e676520746865206c697374696e67207072696365000000000000602082015250565b6000613842603a83612b0b565b915061384d826137e6565b604082019050919050565b6000602082019050818103600083015261387181613835565b9050919050565b7f506c65617365207375626d6974207468652061736b696e67207072696365206960008201527f6e206f7264657220746f20636f6d706c65746520746865207075726368617365602082015250565b60006138d4604083612b0b565b91506138df82613878565b604082019050919050565b60006020820190508181036000830152613903816138c7565b9050919050565b600081905092915050565b600061392082612b00565b61392a818561390a565b935061393a818560208601612b1c565b80840191505092915050565b60006139528285613915565b915061395e8284613915565b91508190509392505050565b7f4552433732313a207472616e736665722066726f6d20696e636f72726563742060008201527f6f776e6572000000000000000000000000000000000000000000000000000000602082015250565b60006139c6602583612b0b565b91506139d18261396a565b604082019050919050565b600060208201905081810360008301526139f5816139b9565b9050919050565b7f4552433732313a207472616e7366657220746f20746865207a65726f2061646460008201527f7265737300000000000000000000000000000000000000000000000000000000602082015250565b6000613a58602483612b0b565b9150613a63826139fc565b604082019050919050565b60006020820190508181036000830152613a8781613a4b565b9050919050565b7f4552433732313a206d696e7420746f20746865207a65726f2061646472657373600082015250565b6000613ac4602083612b0b565b9150613acf82613a8e565b602082019050919050565b60006020820190508181036000830152613af381613ab7565b9050919050565b7f4552433732313a20746f6b656e20616c7265616479206d696e74656400000000600082015250565b6000613b30601c83612b0b565b9150613b3b82613afa565b602082019050919050565b60006020820190508181036000830152613b5f81613b23565b9050919050565b7f45524337323155524953746f726167653a2055524920736574206f66206e6f6e60008201527f6578697374656e7420746f6b656e000000000000000000000000000000000000602082015250565b6000613bc2602e83612b0b565b9150613bcd82613b66565b604082019050919050565b60006020820190508181036000830152613bf181613bb5565b9050919050565b60008190508160005260206000209050919050565b60006020601f8301049050919050565b600082821b905092915050565b600060088302613c5a7fffffffffffffffffffffffffffffffffffffffffffffffffffffffffffffffff82613c1d565b613c648683613c1d565b95508019841693508086168417925050509392505050565b6000819050919050565b6000613ca1613c9c613c9784612bb2565b613c7c565b612bb2565b9050919050565b6000819050919050565b613cbb83613c86565b613ccf613cc782613ca8565b848454613c2a565b825550505050565b600090565b613ce4613cd7565b613cef818484613cb2565b505050565b5b81811015613d1357613d08600082613cdc565b600181019050613cf5565b5050565b601f821115613d5857613d2981613bf8565b613d3284613c0d565b81016020851015613d41578190505b613d55613d4d85613c0d565b830182613cf4565b50505b505050565b600082821c905092915050565b6000613d7b60001984600802613d5d565b1980831691505092915050565b6000613d948383613d6a565b9150826002028217905092915050565b613dad82612b00565b67ffffffffffffffff811115613dc657613dc5612f09565b5b613dd082546132cf565b613ddb828285613d17565b600060209050601f831160018114613e0e5760008415613dfc578287015190505b613e068582613d88565b865550613e6e565b601f198416613e1c86613bf8565b60005b82811015613e4457848901518255600182019150602085019450602081019050613e1f565b86831015613e615784890151613e5d601f891682613d6a565b8355505b6001600288020188555050505b505050505050565b7f5072696365206d75737420626520616c206c6573742031000000000000000000600082015250565b6000613eac601783612b0b565b9150613eb782613e76565b602082019050919050565b60006020820190508181036000830152613edb81613e9f565b9050919050565b7f5072696365206d75737420626520657175616c20746f206c6973740000000000600082015250565b6000613f18601b83612b0b565b9150613f2382613ee2565b602082019050919050565b60006020820190508181036000830152613f4781613f0b565b9050919050565b6000608082019050613f636000830187612c47565b613f706020830186612c47565b613f7d6040830185612cdd565b613f8a6060830184612ad6565b95945050505050565b7f436f756e7465723a2064656372656d656e74206f766572666c6f770000000000600082015250565b6000613fc9601b83612b0b565b9150613fd482613f93565b602082019050919050565b60006020820190508181036000830152613ff881613fbc565b9050919050565b7f4552433732313a20617070726f766520746f2063616c6c657200000000000000600082015250565b6000614035601983612b0b565b915061404082613fff565b602082019050919050565b6000602082019050818103600083015261406481614028565b9050919050565b7f4552433732313a207472616e7366657220746f206e6f6e20455243373231526560008201527f63656976657220696d706c656d656e7465720000000000000000000000000000602082015250565b60006140c7603283612b0b565b91506140d28261406b565b604082019050919050565b600060208201905081810360008301526140f6816140ba565b9050919050565b600081519050919050565b600082825260208201905092915050565b6000614124826140fd565b61412e8185614108565b935061413e818560208601612b1c565b61414781612b46565b840191505092915050565b60006080820190506141676000830187612c47565b6141746020830186612c47565b6141816040830185612cdd565b81810360608301526141938184614119565b905095945050505050565b6000815190506141ad81612a71565b92915050565b6000602082840312156141c9576141c8612a3b565b5b60006141d78482850161419e565b91505092915050565b7f4e487b7100000000000000000000000000000000000000000000000000000000600052601260045260246000fd5b600061421a82612bb2565b915061422583612bb2565b925082614235576142346141e0565b5b828204905092915050565b600061424b82612bb2565b915061425683612bb2565b925082614266576142656141e0565b5b828206905092915050565b7f4e487b7100000000000000000000000000000000000000000000000000000000600052605160045260246000fdfea2646970667358221220edb2935b28cda21ccb219d4e98769b4855a81a38e61cff23ebe248af4f27c5fe64736f6c63430008110033",
  "linkReferences": {},
  "deployedLinkReferences": {}
}